:020000040800F2
:10000000781100203D7600087576000879760008A2
:100010007D760008817600088576000800000000E3
:1000200000000000000000000000000089760008C9
:100030008D76000800000000917600089576000893
:10004000997600089D760008A1760008A57600083C
:10005000A9760008AD760008133700083537000888
:1000600057370008B1760008B5760008B976000861
:10007000BD760008C1760008C5760008C97600087C
:10008000CD760008D1760008D5760008D97600082C
:10009000DD760008E1760008E5760008E9760008DC
:1000A000ED760008F1760008F5760008F97600088C
:1000B0000B30000843300008FD7600080177000887
:1000C00005770008097700080D7700081177000808
:1000D00015770008196500081977000857650008AA
:1000E0001D77000821770008257700082977000888
:1000F0002D77000831770008357700083977000838
:100100003D770008417700084577000849770008E7
:100110004D77000851770008557700085977000897
:100120005D77000861770008657700086977000847
:100130002DE9F04F85B000260027DFF8340600785F
:100140008DF800005FF0000802F09BF982468B46B4
:10015000102500240DF1040922002900484602F070
:10016000CBF9DFF81026D2E9000102000B00DFF81E
:1001700008C6DCE90001BAEB00007BEB01018B4211
:1001800008D801D3824205D200200021DFF8E425FF
:10019000C2E900015FF0FF345FF0FF350020060088
:1001A000F6B2052E5CDADFF8D4050078002847D0D7
:1001B000DFF8CC05F6B2182101FB0600026943699D
:1001C000DFF8BC05F6B2182101FB060CDCF80800CC
:1001D000DCF80C10BAEB00007BEB01018B420CD871
:1001E00001D3824209D2DFF89805F6B2182101FB4B
:1001F00006020020002110615161DFF88405F6B28B
:10020000182101FB060210695169002901D100285B
:1002100024D0DFF86C05F6B2182101FB0602106944
:100220005169A9420BD801D3A04208D2DFF850058A
:10023000F6B2182101FB0600046945690EE00DE0E5
:100240000020002104000D00DFF83405F6B218216B
:1002500001FB06020020002110615161761C9FE71E
:1002600000200600F6B2102E56DADFF818050088D6
:100270003041C0074ED5DFF81005F6B250F8360011
:10028000002847D0DFF8040590F90000DFF8F814E3
:10029000F6B211EBC60191F9041041F3030149B222
:1002A000884211DBDFF8E004F6B210EBC60090F9EB
:1002B000040040F30310DFF8D41491F9001040B2A9
:1002C000884201DB012000E00020C0B2002821D0DC
:1002D000DFF8AC04DFF8B014F6B211EBC6014979CF
:1002E000182202FB010210695169002901D100287E
:1002F00000D00FE0DFF87C24D2E90001002901D111
:10030000002800D006E001A85FFA88F808F800602D
:1003100018F10108761CA5E75FFA88F8B8F1000F1C
:100320003DD0002006005FFA88F8B8F101010020F6
:1003300002F02EF90700F6B2102E30DA01A8FFB253
:10034000385C8DF80000FFB2781C5FFA88F890FBEB
:10035000F8F108FB11077FF05902DFF82C049DF833
:10036000001050F831100120DFF824341B69984741
:10037000002812D09DF80000DFF8F4130870DFF8B1
:100380001404006830F01000DFF808140860DFF88B
:10039000080401F0CAFF002018E0761CCBE7DFF864
:1003A000F4030078C00610D42100DFF8EC0302F05B
:1003B0004BF8DFF8E40301F0CBFEDFF8D803006868
:1003C00050F01000DFF8CC130860012005B0BDE844
:1003D000F08F80B5DFF8C40302F0E3F9DFF8B4036F
:1003E000006830F01000DFF8AC130860FFF7A0FEE3
:1003F000002812D1DFF8A80302F0D3F9DFF8A40334
:1004000002F0CFF9DFF88003DFF86413097810EB0E
:10041000C102D2E9000100F00FFA01BD70B504007D
:100420000D001600DFF8800302F0BBF9DFF87C0353
:10043000DFF87C1309780C54DFF874030078401C53
:10044000DFF86C130870E4B2022C0AD051D3042CEC
:1004500016D007D3062C22D013D3082C48D039D37A
:1004600047E048E0DFF84403DFF8441309780D540F
:10047000DFF83C030078401CDFF8341308703AE0E2
:1004800039E0DFF82803DFF8281309780D54DFF886
:1004900020030078401CDFF8181308702BE0DFF809
:1004A0000C03DFF80C1309780D54DFF8040300780F
:1004B000401CDFF8FC120870DFF8F002DFF8F012E1
:1004C00009780E54DFF8E8020078401CDFF8E012EB
:1004D000087010E0DFF8D402DFF8D41209780D5468
:1004E000DFF8CC020078401CDFF8C412087002E08C
:1004F00001E001200BE0DFF8B8020078102805DAEF
:100500000120DFF810160870002000E0022070BD06
:1005100038B504000D00DFF89C020068002810D0F8
:10052000DFF890020068006800280AD0DFF888022F
:1005300002F037F929002000DFF8782212681268EB
:1005400090470020207031BD10B50400DFF8640230
:1005500004600020DFF8641208700020DFF86012E9
:1005600048700020DFF8581288700720DFF850121A
:10057000C8700120DFF8481208710020DFF840122F
:1005800088600020DFF8381208730020DFF830128E
:10059000C8810020DFF8281208740020DFF820123C
:1005A00048820020DFF8181208750020DFF81012CA
:1005B00048750020DFF8081208700020DFF80412E8
:1005C00008700120DFF8001208600020DFF8FC113D
:1005D00008600020DFF8F81108700020DFF8B4117F
:1005E000086040F2FF10DFF89C1108800120DFF85E
:1005F000E41108700020DFF894110870DFF88C0116
:100600000078DFF8D41108700120DFF8D0110870ED
:100610000020DFF8CC1108700020DFF8C811087046
:100620000120DFF8C411088000200021DFF84821F4
:10063000C2E90001002000214E4AC2E90001012068
:100640004E490870DFF8A401DFF8A41108604FF4E8
:100650007A70DFF8A0110860DFF89C01DFF89C11C8
:100660000860DFF89C01DFF89C110860DFF890015A
:10067000DFF894110860DFF89411DFF8940101F0BD
:100680005DFDDFF87C11DFF8880101F0DDFEDFF8A9
:100690008411414801F052FDDFF87C11DFF87C0144
:1006A00001F04CFDDFF87811DFF8780101F046FD2C
:1006B000DFF87411DFF8740101F040FDDFF870110C
:1006C000DFF8700101F03AFDDFF82004DFF82014B4
:1006D0000860DFF82004DFF818148860DFF81804D9
:1006E000DFF80C140861DFF81404DFF80414486024
:1006F000DFF82404DFF8F813C860DFF8F403DFF84C
:100700002C1409688847982001F03AFF10201849F6
:1007100008700120DFF804140870DFF80004007886
:1007200001F0B8FBDFF80404C06A804710BDDFF8B1
:10073000001408707047F8B504000D0016001F0083
:10074000DFF8DC030460DFF8DC0305601022310011
:10075000DFF8D40301F029FF10223900DFF8D403B9
:1007600001F023FF0120DFF868100870F1BD0000E0
:10077000EC1700204817002040170020EB1700203E
:100780000C000020D817002084000020E71700206C
:100790006C6F00089417002034160020FC720008CB
:1007A00018710008BC6F0008447500081C17002071
:1007B000E517002098170020587500089C170020A6
:1007C00008160020DD170020080000208C170020EC
:1007D000E01700206D010020E81700206E010020C6
:1007E000E9170020EA170020DA170020C0C62D0004
:1007F000B8170020A017002080841E00A417002036
:1008000040420F00A8170020AC170020191C000858
:1008100020160020D3030008010B00084816002012
:100820008D1A00085C160020191B000870160020A5
:100830007B1E000884160020F3B589B0DFF80C0990
:1008400001F0AFFF0120DFF808190870DFF8040994
:10085000DFF85C1791F90010085CDFF8F418C87035
:10086000DFF8F408B149C9688847DFF8440790F910
:10087000000007283DD1DFF8E40808900020079029
:100880000020069000200590012004900020039095
:100890000520029000200190DFF8B808DFF810175B
:1008A00091F90010085C01F0A3FF0022DFF8B038D6
:1008B00001F0ACFF02F092F80090002346F2A8127B
:1008C000DFF8A008DFF8A01891F900100956002001
:1008D000964CE469A047DFF8D0060188C9B2002031
:1008E000924A526A90470021DFF88028C2E900014D
:1008F00066E0DFF8BC0690F90000062833D1DFF887
:100900005C080890002007900020069000200590C9
:100910000120049000200390082002900120019003
:10092000DFF83008DFF8881691F90010085C0090B5
:1009300001230022DFF82C08DFF82C1891F90010B1
:1009400009560120794CE469A047DFF85C0601886C
:10095000C9B20120754A526A90470021DFF80C287D
:10096000C2E900012CE0DFF8F407089000200790AE
:1009700000200690002005900120049000200390A4
:1009800008200290032001900720009000230022FD
:10099000DFF8D007DFF8D01791F9001009560120D1
:1009A000624CE469A047DFF800060188C9B2012063
:1009B0005E4A526A90470021DFF8B027C2E9000181
:1009C000DFF8AC070078FF2801D106208BE0DFF8C4
:1009D000A0070078002805D100200021DFF8942727
:1009E000C2E90001DFF89007006850F00100DFF86D
:1009F00088170860DFF8840701F0AAFB01F041FDC9
:100A0000DFF87C279DF82930182404FB0324226991
:100A10006369DFF86047D4E900679F420CD801D3CF
:100A2000964209D2DFF858279DF82930182404FB94
:100A300003242269636903E0DFF83847D4E900231F
:100A400099422DD801D390422AD2DFF834079DF87D
:100A50002910182202FB010210695169DFF81427DE
:100A6000D2E900458D420DD801D384420AD2DFF885
:100A700010079DF82910182202FB01000269436942
:100A8000110004E0DFF8EC06D0E900231100DFF8E4
:100A9000F40601F0D9FCDFF8EC0601F059FB21E087
:100AA000DFF8E40601F07DFEDFF8E00601F079FEF4
:100AB000DFF8F4040188214801F043FEDFF8D00696
:100AC00001F06FFEDFF8E004008801F02AFE1AA0B2
:100AD00001F067FEDFF8D0040188C9B21748134A55
:100AE000926A904700200BB0F0BD0000B90F0008DB
:100AF000EC150020A5110008BD19000839190008DF
:100B000080B5DFF8A4040188C9B20C48074A926A8C
:100B1000904701BDE417002071190008DE1700207E
:100B20008017002084170020FC1600206C6F00083E
:100B3000E11700200C1700200D0A00006C150020A2
:100B40002DE9F44F84B004000D00DFF8480601F0F1
:100B500028FE9DF81000EDB2854280F02182280029
:100B6000451CC0B2005D022810D0C0F018820428D5
:100B700000F0DC801FD3062800F04D81C0F0EB8030
:100B8000082800F0E081C0F0508108E2DFF8A00DF5
:100B9000007850F04000DFF8981D0870EDB2285D35
:100BA000DFF8AC1508756D1CEDB2285DDFF8A015F7
:100BB00048756D1CCDE707275FF000085FF0000B5C
:100BC0005FF000095FF0000A00208DF80800EDB228
:100BD000285781466D1C19F00F008346C9F303198D
:100BE000DFF8B4050078002815D1DFF8C40390F9C8
:100BF00000004FFA89F9484507D1DFF86C0590F9F4
:100C000000004FFA8BFB584505D00022002103203D
:100C1000FFF704FC9DE7EDB2285D80466D1CEDB248
:100C2000285D58EA00286D1CEDB2285D82466D1CD7
:100C3000CAF302108DF808001AF00F0A5FFA8AFA58
:100C4000BAF1000F01D1012082469DF8080000286A
:100C500007D11FFA88F8B8F1000F02D117F0FE078C
:100C600026E000200600F6B2102E21DA9DF80800DA
:100C700006280BD1DFF82405F6B250F8360000281C
:100C800014D00120B04050EA08080FE0012010FA0B
:100C900006F1404680B2084208D0DFF80005F6B2FF
:100CA00050F83600002801D117F0FE07761CDAE76D
:100CB0004FFA89F9B9F1000F04D44FFA89F9B9F163
:100CC000080F01DB012000E00020C0B2002801D0A5
:100CD00017F0FD074FFA8BFBBBF1000F06D44FFA5C
:100CE0008BFBBBF1060F01DA012000E00020C0B24F
:100CF000002801D117F0FB07FFB217F00700072803
:100D00000DD1AB4880F80090DFF85C0480F800B0AB
:100D1000A848A0F80080DFF8880480F800A000222E
:100D20003900C9B20320FFF779FB12E7EDB2285D65
:100D3000DFF83C1408706D1C0120DFF8341491F9C1
:100D400000108840DFF8EC1B0880002200210420FE
:100D5000FFF764FBFDE6072600275FF000085FF061
:100D60000009EDB2285780466D1C18F00F000700EF
:100D7000C8F30318EDB2285D81466D1CEDB2285D05
:100D800059EA00296D1CEDB2285D59EA00496D1C35
:100D9000642000FB09F94846DFF8641C096A8847AB
:100DA000002801D116F0FE067FB2002F02D47FB2D8
:100DB000082F01DB012000E00020C0B2002801D094
:100DC00016F0FD064FFA88F8B8F1000F04D44FFA78
:100DD00088F8B8F1060F01DB012000E00020C0B266
:100DE000002801D016F0FB06F6B216F0070007281F
:100DF0000AD1DFF8900C0771DFF8880CC0F800907A
:100E0000DFF8B00B80F8008000223100C9B2052065
:100E1000FFF704FB9DE601F017FECD490A7C0100B7
:100E2000C9B20620FFF7FAFA93E6DFF88C0B01F05F
:100E3000B8FC03260027EDB2285707006D1CEDB261
:100E4000285D00906D1C0098EDB2295D50EA0120EC
:100E500000906D1C0098EDB2295D50EA01400090B1
:100E60006D1C0098642148430090EDB228578DF81E
:100E700004006D1C009801F086FC4CA001F091FC70
:100E80007FB2032F02DB7FB2112F01DB16F0FE06CB
:100E90000098DFF86C1B096A8847002805D1DFF845
:100EA000640B01F07EFC16F0FE069DF9040040F391
:100EB00003109DF9041041F3030140B249B2884286
:100EC00027DB9DF9040040F3030040B2002808D45A
:100ED0009DF9040040F3030040B2082801DA012024
:100EE00000E00020C0B2002813D09DF9040040F3B8
:100EF000031040B2002808D49DF9040040F3031009
:100F000040B2082801DA012000E00020C0B2002829
:100F100001D116F0FD06F6B216F0030003280BD13E
:100F2000DFF8640B01F03DFCDDE900010A0001007F
:100F30003800C0B200F0DAFF00223100C9B2072049
:100F4000FFF76CFA05E6EDB2285D10F00F066D1C98
:100F5000F6B2002E00D1761CF6B2300001F048FC4B
:100F60000022DFF89C3B01F051FC01F037FDDFF877
:100F7000941B0860DFF88C0B006801F039FC00223C
:100F8000DFF87C3B01F0C6FD01F028FDDFF83C1CDA
:100F90000860002200210820FFF740FAD9E5FFE7AA
:100FA00005B0BDE8F08F0000D61700200D0000004E
:100FB000E7170020D81700202DE9F843DFF8480B89
:100FC00001F0EFFB01F05DFA04000D00DFF8000C0A
:100FD0000078022808D0DFF8340B01F0E2FBDFF8DC
:100FE000200AC06A804701E000F096FD64486B4922
:100FF000DFF81C2B127811EBC2014979182202FB91
:10100000010022002B008260C360DFF8080B00782B
:1010100000282AD05A486149DFF8F42A127811EBE7
:10102000C2014979182202FB01065048D0E9002389
:1010300053485A49DFF8D87A3F7811EBC70149790C
:10104000182707FB010000880021A0FB028900FB94
:10105000039901FB02994548D0E90023B8EB02004F
:1010600079EB0301306171610EE045484B49DFF8CF
:10107000A02A127811EBC2014979182202FB010063
:101080000022002302614361DFF8480BC0E90045FC
:101090003848D0E900233548D0E90067DFF89408E4
:1010A00000880021A0FB068900FB079901FB069937
:1010B00012EB080053EB09012C4AD2E90067801BB0
:1010C000B9412C4AC2E90001DFF80C0B0078002876
:1010D00023D0DFF8080B01F064FBDFF8040B016894
:1010E000DFF8000B01F0B0F9DFF8F80A01F030F892
:1010F000DFF8DC0A007802281AD0DFF8EC0A01F0E9
:1011000050FBDFF8E80A0168DFF8E40A01F09CF917
:10111000DFF8DC0A01F01CF80AE0DFF814080078B8
:1011200050F00100DFF80818087000200849087026
:10113000DFF8C00A0078002806D1DFF8900D0078AB
:10114000401CDFF8881D0870BDE8F1834471000879
:1011500008160020647600082042C433C0C62D0063
:1011600000408F406C7600086D0100205017002071
:10117000EA170020481700209417002020160020AE
:101180000C000020481600200C7600086C75000842
:10119000587400081C730008E11700208400002028
:1011A0006E0100202DE9FF4F8BB0DFF84C0A01F0F3
:1011B000F8FA0026002400250020099000208DF870
:1011C0000C00FF208DF80F0000208DF80D0000208E
:1011D000049000275FF0000BDFF8200A0590DFF88D
:1011E000200A06905FF0000A00208DF80E00DFF85C
:1011F000E0090078022804D0DFF80408C06A8047BC
:1012000009E0DFF82C070078C0F30110C0B2002815
:1012100001D100F081FCDFF8D80901F086F8DFF891
:10122000E40901F0BEFABDF830100B9801F089FA1C
:10123000B3A001F0B6FA0B98F6B2305C8DF820003E
:10124000761C9DF82000C0B24009C0B2012806D02B
:10125000032800F05B81052800F0548153E3DFF898
:10126000A80901F09EFADFF8A4090078002840F0F0
:101270005C83DFF89C39DFF89C090268BDF8300018
:10128000411E89B20B98401C01F050FD9DF82000D2
:10129000DFF8301C087004ABDFF878090268BDF88D
:1012A0003000011F89B2DFF81C0C01F019FDDFF8D6
:1012B000140CBDF83010081810F8040C0743DFF8C0
:1012C000040CBDF83010081810F8030C57EA00277A
:1012D000DFF8F00BBDF83010081810F8020C57EAD0
:1012E0000047DFF8E00BBDF83010081810F8010CCB
:1012F00057EA00670498874240F0F480DFF8300630
:10130000007850F00200DFF8281608709DF83800C9
:10131000DFF8BC1B0874BDF83400DFF8B41BC881CB
:10132000DFF8DC080090DFF8D438DFF8640B0288BF
:10133000DFF8DC18DFF8DC08006801F016FDDFF8E4
:10134000840B0079DFF8801B0860DFF87C0B0068F5
:10135000DFF8701B497950EA0120DFF86C1B086048
:10136000DFF8640B0068DFF85C1B897950EA014004
:10137000DFF8541B0860DFF84C0BC079DFF8541B12
:101380000860DFF8500B0068DFF8381B097A50EA74
:101390000120DFF8401B0860DFF8380B0068DFF839
:1013A000241B497A50EA0140DFF8281B0860DFF867
:1013B000240B0068DFF80C1B897A50EA0160DFF823
:1013C000141B0860DFF8FC0AC07AC0F30210DFF8D3
:1013D000E4150870DFF8EC0AC07A10F00F00DFF8AF
:1013E000A4160871DFF8DC0A007B10F00F00DFF8AC
:1013F00014170860DFF80C070068002803D10120EB
:10140000DFF800170860DFF8FC06006801F0F0F96B
:101410000022DFF8EC3601F0F9F901F0DFFADFF82D
:10142000E4160860DFF8DC06006801F0E1F900224C
:10143000DFF8CC3601F06EFB01F0D0FADFF88C1744
:101440000860BDF83000401E112834DB50208DF8B4
:1014500004005FF003085FF000095FFA88F8B8F154
:10146000080F28DADFF85C0A5FFA89F919EB000047
:10147000407BDFF8501A5FFA89F919EB0101897B8B
:1014800050EA0120DFF83C1A5FFA89F919EB0101F3
:10149000C97B50EA0140642148430090DDE9000126
:1014A0000A0001004046C0B200F020FD18F101081A
:1014B00019F10309D1E7DFF87804007850F08000D3
:1014C000DFF86C1408700120DFF840170870DFF8AF
:1014D000080A0078DFF8041A08700020DFF8F01915
:1014E000087003E00520DFF8E8190870DFF8400411
:1014F000007850F00100DFF83814087015E200BFE2
:101500000D0A0000DFF8D80901F04BF9DFF8D40923
:1015100001F047F90B98F6B2305C0400761C0B988A
:10152000F6B2305C54EA0024761C0B98F6B2305CBC
:1015300054EA0044761C0B98F6B2305C54EA00641E
:10154000761CDFF89009006884423AD0DFF89809E9
:1015500000688346BBF1000F18D0DBF8000084421E
:1015600011D1DFF8CC03007850F00800DFF8C01389
:1015700008701BF1040005901BF114000690DBF8C5
:101580002400824602E0DBF828B0E3E7DFF8A0039E
:101590000078C0F3C000C0B2002822D1E44800782F
:1015A00050F00100E24908700720DFF824190870A4
:1015B000DFF8D00A006840084000DFF8C81A086069
:1015C000B3E1DB48007810F0F700D9490870DFF884
:1015D0002C060590DFF828060690DFF89C0A0068C4
:1015E0008246DFF8EC05007800280BD0DFF8940A7B
:1015F000006850F00200DFF88C1A0860DFF87C0AFF
:1016000000F0A6FD0B98F6B2305C8DF81C00761C3D
:101610000B98F6B2305C0543761C0B98F6B2305C42
:1016200055EA0025761C9DF81C0010F00F000830CC
:101630008DF80C000B98BDF83010081810F8040C49
:1016400007430B98BDF83010081810F8030C57EA40
:1016500000270B98BDF83010081810F8020C57EA54
:1016600000470B98BDF83010081810F8010C57EA25
:101670000067ADB21FFA8AF0281A0990099800286D
:1016800042D55FEA1A400004ADB215F5803151EA47
:10169000000A04A80290CDF804A0012000902300C5
:1016A000059ABDF83000011F89B20B9801F0A6FA27
:1016B0000498874203D101208DF80E0035E0002008
:1016C0008DF80E009A480078C0F3C000C0B2002820
:1016D00004D0ADB2AA46CBF824A005E0ADB2AA462C
:1016E000DFF89409C0F800A004A80290CDF804A087
:1016F000012000902300059ABDF83000011F89B237
:101700000B9801F07BFA10E065F30F0A04A8029031
:10171000CDF804A0012000902300059ABDF8300008
:10172000011F89B20B9801F069FA9DF80E0000289C
:1017300003D10498874240F0CF807D48007850F074
:1017400002007B4908709DF83800DFF884170874A0
:10175000BDF83400DFF87817C8810020DFF8701773
:1017600008730020DFF82019086071480078C0F382
:10177000C000C0B2002802D0CBF824A003E0DFF8FC
:10178000F808C0F800A09DF82000C0B24009C0B21F
:10179000052804D10120DFF8F418087003E00020C8
:1017A000DFF8E81808709DF81C00C0F34010C0B2C4
:1017B000002808D00120DFF818174870DFF8D0089B
:1017C00000F0B3FD0FE00020DFF804174870DFF8E9
:1017D000C4080078DFF8C0180978884203D2DFF81F
:1017E000B00800F0A2FD9DF81C0010F00F000028CA
:1017F00005D09DF80C2008210B98FFF7A1F9BDF842
:101800003000001F9DF80C10401A012859DB0B987E
:101810009DF80C10085C8DF80F009DF80C00401C22
:101820008DF80C00BDF83000001F9DF80C10401A18
:101830008DF80D009DF80F0000281AD1DFF88406FE
:101840000290CDF804A0012000902300059A9DF895
:101850000D1089B20B989DF80CC01CEB000001F034
:1018600023FA9DF80D200021DFF85806FFF768F9EC
:1018700027E0DFF850060290CDF804A00120009088
:101880002300069A9DF80D1089B20B989DF80CC0A4
:101890001CEB000001F008FA2548007850F0040025
:1018A000234908709DF80F00DFF824160871DFF84F
:1018B0001406DFF81C1688609DF80D00DFF810167E
:1018C00008731B48007850F0010019490870002087
:1018D000DFF8FC15087015E00020DFF8F4154870FB
:1018E0001348007850F00100114908700820DFF813
:1018F000E0150870DFF88C07006840084000DFF84A
:101900008417086011E00A48007850F00100084987
:1019100008700120DFF8B8150870DFF86807006864
:1019200040084000DFF85C1708600FB0BDE8F08F9A
:101930009C170020DA17002080B5A54800780228FF
:1019400003D02F48C06A804701E000F0E5F8DFF8D7
:101950004C07007850F00100DFF8401708700220B3
:10196000DFF86C150870DFF8380700F01AFF01BDCA
:1019700080B597480078022802D02148C06A804785
:10198000DFF818070078C0F30110C0B201280BD1AE
:10199000DFF80807007850F00100DFF80017087042
:1019A0000320DFF82C150870DFF8F80600F0F9FEC8
:1019B00001BD0000E61700203C73000880B5844894
:1019C0000078022802D00E48C06A8047DFF8CC06B3
:1019D0000078C0F30110C0B201280BD1DFF8BC06BB
:1019E000007850F00100DFF8B41608700420DFF82A
:1019F000E0140870DFF8B00600F0D3FE01BD00006F
:101A00006C6F0008DC730008F0B58BB004000D00AB
:101A100016001F00DFF894064068804700282FD189
:101A2000DFF88C06DFF88416C96888470120099022
:101A300000200890002007900020069001200590CB
:101A400000200490002003900520029008200190BF
:101A5000002000900323072200210120DFF84CC65C
:101A6000DCF818C0E04705210120DFF84026126CA1
:101A70009047DFF840060068DFF83016496B88476A
:101A80000BB0F0BD0401002044700008F8B5DFF889
:101A9000280600F086FE052400250026DFF83C0419
:101AA0000078DFF8181691F90010401A05006DB2A1
:101AB000002D01D5002005006DB2032D01DB0820AB
:101AC00004006DB2062D01D101200600DFF8CC051F
:101AD000007810F0CF00DFF8C415087000200090E7
:101AE00023009BB23200290049B2DFF8D405DFF8A9
:101AF000D4753F7850F83700FFF786FFF1BD00003E
:101B000080842E41A017002080750008947500087D
:101B1000EC170020EB17002038B5DFF8AC0500F01B
:101B200040FE34480078002810D0DFF8A015DFF818
:101B3000A00500F02DFDDFF89C150918DFF8500511
:101B400000F082FCDFF8480500F002FB05240025C8
:101B5000DFF884050079032801DB08200400DFF8A2
:101B600078050079062801D101200500DFF82C0551
:101B7000007810F0CF0050F01000DFF8201508704A
:101B800013480078022810D00020009023009BB258
:101B90002A00DFF8440590F90400010049B2DFF89B
:101BA00038050068FFF730FF0FE0012000902300A8
:101BB0009BB22A00DFF8200590F90400010049B229
:101BC000DFF814050068FFF71FFF31BDA4170020E0
:101BD000DD170020401700206C0100207074000801
:101BE000B01700205C16002088740008B41700208D
:101BF00070160020E2170020A8750008FC160020CF
:101C00000C1700204C76000870720008E0170020C6
:101C1000AD1500203C17002080B5DFF8C00400F0AF
:101C2000C0FDDFF87804007810F00100002800F013
:101C30000281DFF8AC040078002854D1DFF85C049E
:101C40000078C0B2C009C0B2002808D0DFF8940400
:101C500000789E4908700020DFF88C1408609B48CB
:101C60000078DFF880140978884221D30020974952
:101C70000870002096490870DFF80C040068401CCA
:101C8000DFF804140860DFF864040078002806D147
:101C9000DFF854040068401CDFF84C140860DFF8DB
:101CA000E403006840084000DFF8D81308601AE039
:101CB000DFF8E803007810F0FE00DFF8E0130870AA
:101CC000FEF736FA00280ED1DFF8F403DFF8F4133C
:101CD000097810EBC102D2E90001FEF7ADFDDFF893
:101CE000100400F05EFDDFF8B4030078C0F340009C
:101CF000C0B2002828D076484078002807D1DFF805
:101D000094030078DFF89013097888421CD20020F1
:101D1000DFF8E0130870DFF8D4030078002806D15C
:101D2000DFF8C4030068401CDFF8BC130860DFF86C
:101D30006803007866498870DFF848030068400847
:101D40004000DFF840130860DFF8A803007800289F
:101D500071D0DFF830030078C0066CD40020DFF8C3
:101D600094130870DFF830030078DFF8281309783F
:101D700088423CD2DFF820030078092837DADFF800
:101D800018030078401CDFF810130870DFF8080310
:101D90000078022190FBF1F202FB1102012A0ED120
:101DA0004E4890F90000401E012805DB4B480078A2
:101DB000401E4A49087002E0002048490870DFF8D8
:101DC000DC02007810F0FE00DFF8D0120870FEF799
:101DD000AFF900282FD1DFF8E802DFF8E812097820
:101DE00010EBC102D2E90001FEF726FD23E0DFF887
:101DF0000803008850F00700DFF8FC120880A148B3
:101E00000068400840009F49086000203049487041
:101E1000A14800782E498870DFF8D00200780028A9
:101E200006D1DFF8C4020068401CDFF8BC1208606D
:101E300000202749087093480078800709D5DFF80B
:101E4000BC0200F0AEFC8F48006830F002008D4903
:101E500008608C480068002808D1DFF8A40200F070
:101E6000A0FC1B498D48FEF753FB05E0A54800F098
:101E700098FC824800F06CF901BD01209D49087072
:101E80008048006830F004007E4908607047000018
:101E9000D417002010B504009B480470012083492A
:101EA0008968884798480078002805D0342139206F
:101EB0007E4A126C904704E0122139207B4A126C52
:101EC000904710BDAC15002080170020E9170020B6
:101ED0000816002084170020E8170020E7170020CC
:101EE000707100089C7100088817002016B5040066
:101EF00000208DF80500DDE90001714AE4B212EB23
:101F0000C402C2E900017C4800880121A1400843C5
:101F1000794908807D4800F044FC6948E4B250F8F3
:101F2000340000F030FC56A000F03BFC6448E4B202
:101F300050F834007649884215D36148E4B250F82D
:101F40003400744988420ED25D48E4B210EBC400FC
:101F50004079002800F0828000205949E4B211EB5A
:101F6000C40148717AE05648E4B250F83400694937
:101F7000884214D35248E4B250F83400664988428B
:101F80000DD24F48E4B210EBC4004079012865D06F
:101F900001204B49E4B211EBC40148715EE04848AE
:101FA000E4B250F834005D49884214D34448E4B2A6
:101FB00050F834005A4988420DD24148E4B210EB3F
:101FC000C4004079022849D002203D49E4B211EB17
:101FD000C401487142E03A48E4B250F83400514933
:101FE000884214D33648E4B250F834004E4988424F
:101FF0000DD23348E4B210EBC400407903282DD051
:1020000003202F49E4B211EBC401487126E02C48AB
:10201000E4B250F834004549884214D32848E4B269
:1020200050F83400424988420DD22548E4B210EB02
:10203000C4004079042811D004202149E4B211EBF6
:10204000C40148710AE000201D49E4B241F834009F
:1020500000201B49E4B211EBC40108711848E4B236
:1020600050F83400002806D1234800880121A140FF
:1020700088432149088013BD8C17002020160020BA
:102080000D0000009417002090170020E317002097
:10209000841600206F010020700100209C17002092
:1020A000A0740008B8740008D07400086C6F0008B1
:1020B00000A1BC33B81700205C730008E6170020AD
:1020C00084000020EC1700207C73000840420F00C1
:1020D000C0BDF0FF80841E00040100209C73000836
:1020E000E21700206E01002008000020DF1700200A
:1020F000BC750008ED170020D8170020C871000833
:10210000BC730008F4710008DE1700209472000808
:1021100040DA8E3301A1BC33C1C8C533604FC73329
:1021200081F0CE33C0FDD13351CED533A091D6331B
:102130008125DB33DFF8B41308707047002202609A
:102140000022426000220272C160002202617047D8
:1021500070B504000025002672B6002C04D02000C3
:1021600000F065F9002801D062B63AE060682060AE
:1021700000202072DFF878030068002804D121686D
:10218000200000F069F82BE0DFF864030068007AB3
:10219000002814D000F06CF90500DFF85403006843
:1021A0000068A84204D2DFF8480300680068050010
:1021B000DFF83C0300680068401B060004E0DFF81D
:1021C00030030068006806002068B04204D2310085
:1021D000200000F041F803E03100200000F002F898
:1021E00062B670BDF0B400220023DFF80443246817
:1021F000DFF8FC522D682D69002D06D10668761A8D
:10220000066020610026066124E00A002E68761828
:102210003300002C1ED006689E420BD20668B61A08
:102220000660002D03D02E680768F61B2E60206123
:1022300005610FE02C002D69002D07D11A000668FA
:10224000B61A066020610026066103E01A002E68B7
:10225000F318DEE7F0BC704770B504000D00A44829
:102260000668002E04D02068281A306000203072E2
:102270002661012020729E4804609D48006800F09D
:1022800009F970BD38B5002498480078002803D1BA
:1022900097480068002847D000F0EAF804000025BD
:1022A000934800680068A04204D200209049096861
:1022B000086006E08E4800680068001B8C490968C9
:1022C00008608B480068050089480068002813D022
:1022D00087480068006800280ED1854800680069BA
:1022E000002805D082480068006981490860EBE752
:1022F00000207F490860E7E7002D09D02868002802
:1023000006D1E868002801D0E86880472D69F3E726
:1023100077480068002807D00120754909680872CD
:102320007348006800F0B6F831BD2DE9F0410400B3
:1023300072B6002500266E4807686D48D0F8008008
:102340006B480068002801D0002C01D162B66CE017
:1023500067480068A04249D165480068007A0028B3
:102360002CD000F085F805002068A84201D2206832
:1023700005002068401B06005D48006800690028D1
:1023800018D000205A490968087259480068006945
:102390005749086056480068006830185449096871
:1023A000086001205249096808725148006800F02D
:1023B00071F839E000204E49086035E04C4800686B
:1023C000006900280ED020680600494800680069AE
:1023D0004749086046480068006830184449096861
:1023E000086021E00020424908601DE020680600E6
:1023F000B8F1000F18D0A04512D1D8F8100000286D
:1024000009D0D8F81080C7F81080D8F8000030182C
:10241000C8F8000003E000208046C7F8108003E001
:102420004746D8F81080E3E762B6BDE8F0810100C6
:102430002F480268002A05D08A4201D1012002E01B
:102440001269F7E70020704770B504000D00002600
:102450002000FFF76AFF25480078002802D100F02D
:1024600044FD0600B54200D235002560656070BDB0
:1024700080B51E480078002802D100F07DFDFFE7FE
:1024800002BD80B519480078002802D100F094FD03
:10249000FFE704BD10B5040000201649087013487A
:1024A0000078002802D1206800F027FD10BD80B51B
:1024B0000F480068002817D00D480068007A0028EF
:1024C00012D00C480078052805DA0A480078401C2C
:1024D0000849087008E000200649087003480078A1
:1024E000002801D100F0C8FD01BD0000F417002054
:1024F000D0170020F517002062F30F2262F31F426D
:10250000401810F0030308D0C91A1FD3DB0748BFD7
:1025100000F8012D28BF20F8022D130030B4144616
:102520001546103928BF20E93C00FAD8490728BFD2
:1025300020E90C0048BF40F8042D890028BF20F88E
:10254000022D48BF00F8012D30BC7047C91818BFD4
:1025500000F8012DCB0728BF00F8012D70470000BF
:1025600009480068094943F2390201FB0020064985
:1025700008607FF00041B0FBF1F201FB12007047F0
:102580000149086070470000680100206D4EC64197
:1025900038B504000D00FFF7E3FF291B491C90FB31
:1025A000F1F201FB1200201832BD13005A1E9BB23B
:1025B000002B04D00B780370491C401CF5E77047D2
:1025C00013005A1E9BB2002B02D00170401CF7E78B
:1025D00070470000012110F01F029140764A40B27E
:1025E000430942F82310704700B585B001210D2042
:1025F00000F0B2FD01214FF4804000F0ADFD01215B
:102600005FF4802000F0B7FD4FF40070ADF80000DB
:1026100003208DF8020018208DF8030069466748F2
:1026200000F0C6FD4FF48060ADF8000004208DF886
:1026300003006946614800F0BBFD5FF4E1300190A2
:102640000020ADF808000020ADF80A000020ADF829
:102650000C000020ADF810000C20ADF80E0001A910
:10266000574800F071FE0121554800F0DFFE0122BD
:1026700040F22551524800F0E7FE2520FFF7AAFF5F
:102680004FF48060ADF8000003208DF802001820A0
:102690008DF8030069464B4800F08AFD4FF4006056
:1026A000ADF8000004208DF803006946454800F0AD
:1026B0007FFD5FF4E13001900020ADF808000020BC
:1026C000ADF80A000020ADF80C000020ADF81000B5
:1026D0000C20ADF80E0001A93B4800F035FE0121A9
:1026E000394800F0A3FE012240F22551364800F09F
:1026F000ABFE2720FFF76EFF344800F052F805B01C
:1027000000BD314909880906FBD5C0B230490880AF
:1027100070472B4909880906FBD5C0B22D490880AE
:10272000704710B504002C48E4B22111085CFFF793
:10273000E8FF2948E4B214F00F01085CFFF7E1FF5D
:1027400010BD38B504000D002800451E80B20028D9
:1027500007D02078FFF7E5FF641C2020FFF7D1FFAA
:10276000F2E70A20FFF7CDFF31BD38B504000D00B8
:102770002800451E80B2002804D02078FFF7C9FF4A
:10278000641CF5E731BD38B5040018256DB2002D85
:1027900006D42000E840C0B2FFF7C3FF083DF5E7CC
:1027A00031BD10B504002078002804D02078FFF750
:1027B000A8FF641CF7E710BD00E100E0000801403D
:1027C00000380140000C014000480040B87000088B
:1027D000044800400438014030750008010040F111
:1027E0000980F446404200F005F851F0004160478E
:1027F000010000BF09D0B0FA80F18840C91CC1F5C2
:102800008461090501EBD02140057047B0B581EA2C
:10281000030C0CF0004C40F2FF7515EA11541DBF7B
:1028200015EA1357AC42AF4239E0E41923EA4553A5
:1028300043F48013C90241F0004141EA505EC702EF
:102840001100A7FB020200284FF00000EEFB012060
:102850004FF00001E3FB072118BF42F001024018CE
:1028600000214941E3FB0E01A4F580640F0302D26D
:1028700052004041494154F101046CDD470872F1B6
:10288000004250F1000051EB0451A1F580115CBFF2
:1028900041EA0C01B0BD4CEA05510020B0BD05EA8B
:1028A0001357AC4214BFAF4241E050EA410E1CBF87
:1028B00052EA430E02E061460020B0BD24423C448F
:1028C0001BD15FEA070EF6D0090302BF01460020C4
:1028D000AEF1140EB1FA81F7AEEB070401FA07FE70
:1028E0000C37C7F1200100FA07F7C8404EEA000E86
:1028F00023EA455343F48013A2E733F00043B3FACD
:1029000083F704BFB2FA82FE77440B3FE41BB7F1B2
:10291000200E2FBF02FA0EF3BB40C7F1200E22FAA1
:102920000EFE38BF43EA0E03BA40641C82E750EA49
:10293000410E14BF52EA430E6FF000014FF400172E
:1029400017EB430F8ABF194617EB410FB5E74CEA67
:1029500005510020B0BDD4F10104B4F120070FDA15
:10296000C4F12007520828BF42F0010210FA07F50F
:1029700001FA07F7E1BF2A43E0403843E1400FE0A6
:10298000352C98DCC7F1200452EA400220FA07F205
:1029900018BF42F0010231FA07F0A1400A430021BA
:1029A00072F1004250F1000051EB0C01B0BD00008B
:1029B000F446400D40EAC120490006D200F014F868
:1029C000004248BF6FF00040604700F00DF84FF044
:1029D000004188428CBF084640426047400D40EAB3
:1029E000C120490080F00D8040F00040490DA1F564
:1029F0008061491C05D4D1F11F0154BFC840C017E4
:102A000070474FF00000704780B53E4800780028BE
:102A100019D14FF4407000F07BFD3B48006830F066
:102A20000200394908603948006850F000703749A1
:102A3000086000F0B1FD0020FFF77CFB00F0E6F934
:102A400001203049087001BDF8B500240026002798
:102A500001215FF0805000F08EFB012000F096FE17
:102A6000012000F0A9FE2A480068070000200500A8
:102A7000EDB2072D13DA37F0E000EDB250EA451061
:102A800023490860012000F097FE042000F082FE38
:102A9000012802D10120A84006436D1CE8E7002070
:102AA00000F074FEF6B23000002822D040281DD07D
:102AB000602818D0702813D078280ED07C2809D030
:102AC0007E2804D07F2817D11F20040016E03F2065
:102AD000040013E05F20040010E07F2004000DE0FC
:102AE0009F2004000AE0BF20040007E0DF2004006C
:102AF00004E0FE20040001E0FF2004002000C0B23A
:102B0000F2BD0000DC17002010E000E004ED00E062
:102B100000700040F0B44FF0004591EA030C44BF50
:102B20006B4000F04FBE00BF841A71EB030603D266
:102B3000001BB141121973414FF4001C1CEB410FF3
:102B400034BF7CEB430443E00C0DA4EB1356352E4D
:102B500050DC45EAC323DB0A45EAC121C912B6F1BC
:102B600020050DDD63FA05F6EB4086EA0305124207
:102B700018BF45F00105C01851F100010CD213E057
:102B800062FA06F5F2405540F3415A40B340F34033
:102B90005A408018594107D349085FEA30005FEA7C
:102BA000350528BF45F0010501F58011420875F192
:102BB000004250F1000041EB0451F0BC4FF4001C06
:102BC0001CEB410F38BF70470020090D0905704705
:102BD0001CEB410F10D252EA43060BD0BCEB410F65
:102BE00005D80C0DAB43661E342EB5DD02E0AB43B9
:102BF00080185941F0BC7047F0BC70472DE9F04790
:102C000005000E0017009846089CDDF82490DDF8BA
:102C100028A07A484471794880F806805FEA182035
:102C20007649C8715FEA1840744908725FEA186013
:102C300072494872714880F80A905FEA19206F491A
:102C4000C8725FEA19406D4908735FEA19606B4901
:102C500048736A48C6736A4800F06AFE39006848DB
:102C600000F077FE10226549654800F07BFEB6B2A1
:102C7000F2B22900624800F075FE6149614800F037
:102C8000E2FE6048C0785F498978090451EA006033
:102C90005C49497850EA01205A4909780843CAF842
:102CA0000000BDE8F08770472DE9F04784B00500CB
:102CB0000E00170098460C9CDDF83490DDF838A023
:102CC000CDF808A0CDF804902000C0B20090434693
:102CD0003A00310089B22800FFF7E5FFBDE8FF8721
:102CE000F8B504000D0016001F00454800F020FE56
:102CF0003100434800F02DFEADB2EAB22100404859
:102D000000F030FE3E493F4800F09DFE3D48C0784F
:102D10003C498978090451EA00603A49497850EA07
:102D200001203849097808433860F1BDF8B504003E
:102D30000D0016001F00F02200213348FFF740FC71
:102D4000314A1021300001F045F92F4A39002000A6
:102D500001F004FAADB2102D06DB2B4A17F1100179
:102D600014F1100001F0FAF9F1BD2DE9F44185B03C
:102D700004000D001E000C9F0DF11408F02200212C
:102D80002148FFF71DFC204A1021200001F022F904
:102D9000102200216846FFF713FC01208DF8000087
:102DA000062229000DF10100FFF7FFFB0222414638
:102DB0000DF10700FFF7F9FB134A3100684601F0F7
:102DC000CDF9102200216846FFF7FAFB02208DF8AA
:102DD0000000062229000DF10100FFF7E6FB0222A8
:102DE00041460DF10700FFF7E0FB074A390068464E
:102DF00001F0B4F906B0BDE8F08100000C0100203C
:102E0000781100202C1700209013002000B585B009
:102E10000121012000F0AFF91C208DF800000120F5
:102E20008DF8010001208DF8020001208DF80300CB
:102E3000684600F072FB00200021894AC2E90001C7
:102E400040F67F40ADF808000020ADF804000020F7
:102E5000ADF80A000020ADF8060001A95FF080403F
:102E600001F0ACF9012201215FF0804001F0FEF990
:102E700001215FF0804001F0EBF90121022000F018
:102E80007AF91D208DF8000000208DF80100002047
:102E90008DF8020001208DF80300684600F03DFB2C
:102EA00040F67F40ADF808000A20ADF8040000208D
:102EB000ADF80A000020ADF8060001A9694801F04C
:102EC0007DF900220121674801F0D0F90021654811
:102ED00001F0BEF901220121624801F0C7F9012188
:102EE000604801F0B5F905B000BD80B500205E492D
:102EF00001F0F8F9FFF772FD02BD10B5040000F013
:102F00004FF85A4AC2E90001662C09D25748D0E965
:102F10000023501C53F10001514AC2E900010CE0AA
:102F20005248D0E90023601E6421B0FBF1F000217B
:102F3000101859414A4AC2E9000110BD38B50400D1
:102F40000025250000204A4908600122012145484A
:102F500001F08CF90121434801F07AF900F03AF8C8
:102F6000A842FBD3002201213E4801F07FF9002155
:102F70003C4801F06DF931BD38B500F011F83B4A1D
:102F8000D2E90045001BA941421C51F10003642411
:102F90000025A4FB020104FB031105FB021134BD53
:102FA00030B40020002172B6324AD2E90045200038
:102FB000290062B630BC704738B5FFF7F1FF020058
:102FC0000B0064240025A4FB020104FB031105FB94
:102FD000021134BD002072B625490968080062B6A6
:102FE000704772B62348D0E90023501C53F100010A
:102FF000204AC2E9000162B6704772B61C480068F8
:10300000401C1B49086062B6704738B501215FF06B
:10301000804001F036F9002812D0FFF7E2FF0121CD
:103020005FF0804001F046F9124AD2E900010C4AF3
:10303000D2E90045A94203D1A04201D1FFF722F90C
:1030400031BD80B50121074801F01BF9002805D0EA
:10305000FFF7D3FF0121034801F02CF901BD000067
:10306000781700200004004000006940701700201D
:10307000CC1700200000002030BF704730B4002182
:10308000002200230024434D2D6815F00C05290073
:103090000D00002D04D0042D05D0082D06D026E00B
:1030A0003D4D056025E03C4D056022E0394D2D6821
:1030B00015F470152A00374D2D6815F480352B0056
:1030C000920C921C002B04D1344D05FB02F50560D7
:1030D0000CE0304D2D68AD0304D5304D05FB02F5F5
:1030E000056003E02C4D05FB02F5056001E02A4D6B
:1030F0000560284D2D6815F0F00529000909284DB7
:103100004D5D2C000568E5404560224D2D6815F4A5
:10311000E0652900090A224D4D5D2C004568E54017
:1031200085601C4D2D6815F460552900C90A1C4D99
:103130004D5D2C004568E540C560164D2D6815F4C1
:1031400040452900890B174D4D5D2C00C568B5FB26
:10315000F4F5056130BC7047C9B2002905D0124AA8
:1031600012680243104B1A6004E00F4A126882434F
:103170000D4B1A607047C9B2002905D00B4A12687E
:1031800002430A4B1A6004E0084A12688243074B64
:103190001A6070470410024000127A0000093D00D6
:1031A0003C0100204C010020181002401C1002407D
:1031B000F0B500270022002300240025002691F806
:1031C00003C01CF00F0C674691F803C05FEACC6C9B
:1031D00003D591F802C05CEA070791F800C05FEAE6
:1031E0000C6C3AD0D0F800C065465FF0000C634626
:1031F000082B31D25FF0010C1CFA03FC6446B1F8D5
:1032000000C014EA0C0C6246A24223D15FEA830C90
:1032100064465FF00F0C1CFA04FC6646B54317FACF
:1032200004FC5CEA050591F803C0BCF1280F06D147
:103230005FF0010C1CFA03FCC0F814C00AE091F81E
:1032400003C0BCF1480F05D15FF0010C1CFA03FC70
:10325000C0F810C05B1CCBE70560B1F800C0BCF142
:10326000FF0F3FDDD0F804C065465FF0000C6346F9
:10327000082B36D25FF0010C13F1080E1CFA0EFC7D
:103280006446B1F800C014EA0C0C6246A24226D192
:103290005FEA830C64465FF00F0C1CFA04FC664680
:1032A000B54317FA04FC5CEA050591F803C0BCF1CC
:1032B000280F07D15FF0010C13F1080E1CFA0EFC69
:1032C000C0F814C091F803C0BCF1480F07D15FF0FB
:1032D000010C13F1080E1CFA0EFCC0F810C05B1CA8
:1032E000C6E74560F0BD89B20161704789B24161AE
:1032F000704730B400220F2311F00304E4B2A4009D
:10330000A3401A000F4BC9B28C1053F824309343DA
:103310000C4CC9B28D1044F825300A4BC9B28C1040
:1033200053F82430C0B211F00304E4B2A40010FA40
:1033300004F42343034CC9B28D1044F8253030BC4B
:1033400070470000080001402DE9F04786B00400F6
:103350000D00002600275FF000085FF000095FF015
:10336000000AA8890028A246208A06004CF6FF70B1
:103370000640E88806432682A08906004EF6F31030
:103380000640A88829890843698908430643A6811D
:10339000A08A06004FF6FF400640A8890643A68291
:1033A0006846FFF76BFE2048824502D1039807006C
:1033B00001E002980700A089000408D5192000FB4D
:1033C00007F029684900B0FBF1F0804607E01920BA
:1033D00000FB07F029688900B0FBF1F0804664200B
:1033E000B8FBF0F0000106003009642101FB1080F9
:1033F0008146A089000409D55FEAC9003230642102
:10340000B0FBF1F010F00700064308E05FEA091096
:1034100032306421B0FBF1F010F00F00064326813A
:1034200006B0BDE8F087000000380140C9B20029AD
:1034300004D0828952F40052828104E082894DF6E0
:10344000FF731A4082817047F0B4002300240025E6
:10345000002689B240F66A17B94206000F00FFB293
:103460007F09FFB23B0089B211F01F073C00012722
:10347000A7403D00012B01D10C3604E0022B01D105
:10348000103600E01436D2B2002A03D037682F433A
:10349000376002E03768AF433760F0BC704770B404
:1034A0000300002400260025002089B240F66A129D
:1034B00091420A00D2B25209D2B2150089B211F07B
:1034C0001F021600012212FA06F6012D02D19A8976
:1034D000164006E0022D02D11A8A164001E09A8AAF
:1034E00016400A0092B2120A92B21400012212FA95
:1034F00004F41A881440002E04D0002C02D00122BB
:10350000100001E000221000C0B270BC7047000043
:103510001C4901431C4A1160704770B4002300210C
:103520000F22C478002C20D0174C246814F4E064D7
:10353000D4F5E064240A2300D3F104042100DA4026
:1035400044788C4023008478144023431B010F4CA3
:1035500005782B550124057815F01F05AC400C4D5E
:103560000678761145F8264009E00124057815F023
:103570001F05AC40074D0678761145F8264070BC13
:10358000704700000000FA050CED00E000E400E0E8
:1035900000E100E080E100E080B500F0D3FE01BD75
:1035A00030B585B0040001211C20FFF7D5FD0420B3
:1035B000ADF8040028208DF8070001A96E48FFF738
:1035C000F7FD01210120FFF7C7FD02210020FFF7D1
:1035D00090FE0420029000208DF80C0008208DF849
:1035E0000D0001208DF80E0002A800F02FFF08202A
:1035F0008DF800000F208DF801000F208DF80200DB
:1036000001208DF803006846FFF787FF0120ADF821
:10361000040028208DF8070001A95848FFF7C8FDCD
:1036200001210120FFF798FD00210120FFF761FE35
:103630000120029000208DF80C0008208DF80D006C
:1036400001208DF80E0002A800F000FF06208DF882
:1036500000000F208DF801000F208DF802000120DE
:103660008DF803006846FFF758FF0220ADF804000C
:1036700028208DF8070001A94048FFF799FD012196
:103680000120FFF769FD01210120FFF732FE022032
:10369000029000208DF80C0008208DF80D0001200C
:1036A0008DF80E0002A800F0D1FE07208DF8000072
:1036B0000F208DF801000F208DF8020001208DF8F9
:1036C00003006846FFF729FF00200500EDB2052D35
:1036D00008DAEDB254F825002949EDB241F8250089
:1036E0006D1CF3E705B030BD01002648814201D3CF
:1036F000802000E000207047234991F88810C0B274
:10370000814202D0204981F88800704701000120E1
:10371000704780B5012000F0DDFE002809D0184870
:103720000068002802D0164800688047012000F099
:10373000E5FE01BD80B5022000F0CCFE002809D0D6
:103740000F484068002802D00D484068804702209A
:1037500000F0D4FE01BD80B5042000F0BBFE0028BF
:1037600009D007488068002802D005488068804753
:10377000042000F0C3FE01BD00080140000C014020
:10378000AC16002041DD4A1F84140020C0B2084955
:103790000860704701000020064A12680A4202D001
:1037A0000122100001E000221000C0B270470000AA
:1037B00010000E420470004010B504002000FFF716
:1037C000BDFB10BD841A71EB030604D26E40001BD2
:1037D000B141121973414FF4001C1CEB410F34BF6F
:1037E0007CEB430684E00C0DA4EB1356362E7DDCF7
:1037F000012E43DC45EAC32343EA525312BFD202EF
:1038000092025B08240545EAC12141EA5051D2EBFE
:10381000C020994125D407D1B0FA80F610FA06F1FC
:1038200064D00020203608E0B1FA81F6B140C6F13C
:10383000200220FA02F21143B0404FEAF474B4EBD4
:10384000465434F001064FEA74040AD8D6F500163F
:10385000760D04F00044F04061FA06F25040F14069
:103860004840C00A40EA415021F0004128BF5FEAC9
:10387000500550F1000044EBD12137E045EAC32365
:10388000DB0A45EAC121C90AB6F120050EDD42EA8C
:103890000242120CC5F1200603FA06F6EB4042EA9A
:1038A00006056D42984161F100010DE062FA06F5EE
:1038B000F240554063FA06FC82EA0C02F3405A409B
:1038C0006D42904161EB030111F4801F05D1641E2C
:1038D000620502D06D004041494121F48011430846
:1038E00075F1004350F1000041EB0451F0BC70470A
:1038F0001CEB410F15D223F0004352EA43060BD0D4
:103900004FEA4C0CBCEB410F04D80C0D661E342E54
:10391000B7DDEBE7801A994150EA410608BF002164
:10392000E4E708BF1CEB430F28BF6FF00001DDE7A1
:1039300010B504001022002114F1F100FEF740FE42
:103940000020C4F81401F02200212000FEF738FE08
:1039500010BD38B504000D0022001021280000F031
:1039600039FB31BDF0B585B004000D001600D4F868
:103970001401002839D0D4F81401D0F11000B0425D
:1039800004D2D4F81401D0F1100700E037003A0057
:103990002900D4F81401001900F20110FEF705FE09
:1039A000D4F814013818C4F81401D4F814011028FC
:1039B00001D3BE4200D144E00021080010280BDAF8
:1039C000011991F8F110021992F8012151400219E0
:1039D00082F8F110401CF1E7220014F1F10114F11A
:1039E000F10000F0BBFB7D19F61B112E21D3002145
:1039F0000800102809DA011991F8F110425D5140D0
:103A0000021982F8F110401CF3E7102214F1F101C1
:103A10006846FEF7CAFD22006946684600F09EFB34
:103A20001022694614F1F100FEF7BFFD1035103E7B
:103A3000DBE73200290004F20110FEF7B6FDC4F8FE
:103A4000146105B0F0BD30B589B004000D0010223E
:103A500000216846FEF7B4FD2A006946684600F07A
:103A60007DFB9DF8000000061CD5002108000F28F2
:103A70000CDA6946415C6A4682185278D2B2D209A1
:103A800052EA41016A468154401CF0E79DF80F104C
:103A900049008DF80F109DF80F1091F087018DF8F7
:103AA0000F1015E0002108000F280CDA6946415C70
:103AB0006A4682185278D2B2D20952EA41016A4665
:103AC0008154401CF0E79DF80F1049008DF80F104D
:103AD000D5F8140110280FD10021080010280ADAA7
:103AE000411991F801116A46825C5140421982F8ED
:103AF0000111401CF2E75BE09DF8000000061CD5B8
:103B0000002108000F280CDA6946415C6A468218D9
:103B10005278D2B2D20952EA41016A468154401C1D
:103B2000F0E79DF80F1049008DF80F109DF80F1069
:103B300091F087018DF80F1015E0002108000F2883
:103B40000CDA6946415C6A4682185278D2B2D209D0
:103B500052EA41016A468154401CF0E79DF80F107B
:103B600049008DF80F108020D5F81411491981F8FB
:103B70000101D5F81401401CC5F81401D5F8140151
:103B8000102806D20020D5F81411491981F8010136
:103B9000EFE70021080010280ADA411991F8011115
:103BA0006A46825C5140421982F80111401CF2E7DA
:103BB0000021080010280BDA411991F8F110421980
:103BC00092F801215140421982F8F110401CF1E7AE
:103BD000102215F1F10104A8FEF7E7FC2A002100EC
:103BE00004A800F0BBFA102200216846FEF7E8FCAA
:103BF00009B030BD0A6802604A6842608A68826023
:103C0000CA68C260704713005A1EDBB2002B04D092
:103C10000B780370491C401CF5E7704702680B687D
:103C20005A40026042684B685A40426082688B6822
:103C30005A408260C268CB685A40C260704710B474
:103C40000B681468634003604B68546863404360CA
:103C50008B68946863408360CB68D4686340C360BA
:103C600010BC704738B504000D0029002000FFF794
:103C7000D5FF31BDDFF8D82403789A5C0270DFF8F5
:103C8000D02403799A5C0271DFF8C424037A9A5C29
:103C90000272DFF8BC24037B9A5C02734278110045
:103CA000DFF8AC2443799A5C4270DFF8A424437AAD
:103CB0009A5C4271DFF89824437B9A5C4272DFF889
:103CC0009024C9B28A5C427382781100DFF88024A4
:103CD000837A9A5C8270DFF87824C9B28A5C827237
:103CE00082791100DFF86824837B9A5C8271DFF8A7
:103CF0006024C9B28A5C8273C27B1100DFF8502451
:103D0000C37A9A5CC273DFF84824C3799A5CC272A2
:103D1000DFF83C24C3789A5CC271DFF83424C9B25E
:103D20008A5CC27070471FB5040021006846FFF727
:103D300061FFDFF820049DF80010085CDFF818141C
:103D40009DF80520515C4840DFF804149DF80A20D6
:103D5000515C4840DFF8F8139DF80F20515C484053
:103D60002070DFF8EC039DF80010085CDFF8E41326
:103D70009DF80520515C4840DFF8DC139DF80A20CF
:103D8000515C4840DFF8C8139DF80F20515C484053
:103D90006070DFF8BC039DF80010085CDFF8B0131A
:103DA0009DF80520515C4840DFF8A8139DF80A20D3
:103DB000515C4840DFF8A0139DF80F20515C48404B
:103DC000A070DFF894039DF80010085CDFF8801302
:103DD0009DF80520515C4840DFF874139DF80A20D7
:103DE000515C4840DFF86C139DF80F20515C48404F
:103DF000E070D8489DF80410085CD7499DF8092068
:103E0000515C4840D2499DF80E20515C4840D04951
:103E10009DF80320515C48402071CD489DF8041066
:103E2000085CCC499DF80920515C4840CA499DF87E
:103E30000E20515C4840C6499DF80320515C484023
:103E40006071C3489DF80410085CC1499DF80920C1
:103E5000515C4840BF499DF80E20515C4840BE4926
:103E60009DF80320515C4840A071BB489DF80410A8
:103E7000085CB7499DF80920515C4840B4499DF859
:103E80000E20515C4840B3499DF80320515C4840E6
:103E9000E071B0489DF80810085CAF499DF80D200E
:103EA000515C4840AA499DF80220515C4840A8490D
:103EB0009DF80720515C48402072A5489DF80810E5
:103EC000085CA4499DF80D20515C4840A2499DF82A
:103ED0000220515C48409E499DF80720515C4840B3
:103EE00060729B489DF80810085C99499DF80D2068
:103EF000515C484097499DF80220515C48409649E2
:103F00009DF80720515C4840A07293489DF8081026
:103F1000085C8F499DF80D20515C48408C499DF804
:103F20000220515C48408B499DF80720515C484075
:103F3000E07288489DF80C10085C87499DF80120C4
:103F4000515C484082499DF80620515C48408049B8
:103F50009DF80B20515C484020737D489DF80C1063
:103F6000085C7C499DF80120515C48407A499DF8E5
:103F70000620515C484076499DF80B20515C484032
:103F8000607373489DF80C10085C71499DF801201E
:103F9000515C48406F499DF80620515C48406E498D
:103FA0009DF80B20515C4840A0736B489DF80C10A5
:103FB000085C67499DF80120515C484064499DF8C0
:103FC0000620515C484063499DF80B20515C4840F5
:103FD000E0731FBD2DE9F04705000C001600E4B2A8
:103FE0002000102803D0182801D0202813D1220047
:103FF000D2B229003000FFF706FE14F11C00800049
:1040000007003800C0B20009401E86F8F000A14643
:104010000120804604E0002086F8F000FF2094E0B4
:104020005FFA89F9FFB2B94580F08E805FFA89F9AD
:1040300019EB060010F8040C02005FFA89F919EB7D
:10404000060010F8030C03005FFA89F919EB06006B
:1040500010F8020C84465FFA89F919EB060010F893
:10406000010C86465FFA89F9E4B299FBF4F004FB8F
:104070001090002820D111003548DBB2185C98EA76
:104080000000020032485FFA8CFC1CF800000300BC
:104090002F485FFA8EFE1EF8000084462C48C9B2F5
:1040A000085C86464046C0B2C0095FF01B0A0AFBA6
:1040B00000F090EA48081BE0E4B2192C18DB5FFA24
:1040C00089F9E4B299FBF4F004FB109010280FD1A9
:1040D0001F48D2B2125C1E48DBB21B5C1C485FFA60
:1040E0008CFC1CF800C01A485FFA8EFE1EF800E037
:1040F000B9EB04000100C9B2885D50405FFA89F94C
:1041000009F80600C9B28819407858405FFA89F961
:1041100019EB060A8AF80100C9B2881980789CEA6E
:1041200000005FFA89F919EB060A8AF80200C9B2A1
:104130008819C0789EEA00005FFA89F919EB060138
:10414000C87019F104096BE70020BDE8F087000092
:10415000BC6B0008BC6C0008BC6D0008F0B585B0F5
:1041600004000D00160096F8F000002822D032005E
:1041700021006846FFF763FD0120070096F8F00074
:10418000FFB287420AD26846FFF7CDFDFFB216EBB9
:1041900007116846FFF766FD7F1CEFE76846FFF7EB
:1041A00069FDFFB216EB071269462800FFF747FDCD
:1041B000002000E0FF2005B0F0BD000000220388D1
:1041C0001A00DFF8F830984212D0DFF80831984230
:1041D0000ED0B0F1804F0BD0DFF8E430984207D01A
:1041E000DFF8E030984203D0DFF8DC30984204D1A9
:1041F0004FF68F731A404B881A43DFF8D03098423D
:1042000008D0DFF8CC30984204D04FF6FF431A4074
:10421000CB881A4302808B8883850B880385DFF85F
:104220009C3098420FD0DFF8AC3098420BD0DFF8CA
:10423000A830984207D0DFF8A430984203D0DFF8C6
:10424000A030984201D10B7A038601238382704704
:10425000C9B2002904D0028852F00102028004E0B1
:1042600002884FF6FE731A4002807047D2B2002ACD
:1042700003D083890B43838102E083898B4383814D
:10428000704730B40200002000230024158A0D403E
:104290002B0095890D402C009BB2002B05D0A4B2B9
:1042A000002C02D00125280001E000252800C0B222
:1042B00030BC704789B2CA4302827047002C01406B
:1042C0000004004000080040000C004000100040C6
:1042D000001400400034014000400140004401400F
:1042E0000048014040F2FF7C1CEA115240F2FE33CC
:1042F000D21ACCBFD2F1350316E0B2F1150309DAB8
:104300006FEA4C53D340094201D4401E594100206A
:10431000994370476FF00002DA40094202D48018D6
:1043200051F1000190437047352A09DA50EA410300
:104330001CBF40F2FF31090528BF4FF000410020AB
:104340007047000000B585B000F047F80421DFF8A1
:10435000F000FEF7C8FF0020ADF800004FF48270B7
:10436000ADF802000020ADF804000220ADF8060010
:104370000120ADF808004FF40070ADF80A002020CD
:10438000ADF80C000020ADF80E000720ADF81000CD
:104390006946DFF8B00000F0BFF80121DFF8A400A3
:1043A00000F0DAF805B000BD10B504000221254880
:1043B00000F0E4F80028F9D0E4B2210089B22148E5
:1043C00000F0D8F801211F4800F0D8F80028F9D0F3
:1043D0001C4800F0D1F8C0B210BD80B501210C20FE
:1043E000FEF7BAFE01214FF48050FEF7B5FE202003
:1043F000ADF8000003208DF8020018208DF80300AE
:1044000069461148FEF7D4FE8020ADF800006946E9
:104410000D48FEF7CDFE4020ADF8000004208DF8D9
:10442000030069460848FEF7C3FE0420ADF800000B
:1044300010208DF8030069460148FEF7B9FE01BD62
:10444000000C0140003001400008014000212D4ACD
:1044500011008279002A36D02A4A126803689A43EA
:10446000284B1A60284A126803689A43264B1A6040
:10447000027951180A6803681A430A60234A1268CD
:1044800003689A43214B1A60214A126803689A43D1
:104490001F4B1A604279102A0CD11C4A126803681B
:1044A0001A431A4B1A601A4A126803681A43184BC7
:1044B0001A600EE0134A1100427951180A68036825
:1044C0001A430A6005E0027951180A6803689A43A2
:1044D0000A6070470100002000220A4B1B680B4055
:1044E0001A000C4B1B680B4204D0002A02D0012397
:1044F000180001E000231800C0B2704705490860A9
:104500007047000000040140040401400804014019
:104510000C0401401404014010B4002203881A0066
:1045200012F441520B884C8823438C882343CC8857
:1045300023430C8923434C8923438C892343CC890F
:1045400023431A430280838B4FF2FF7423408383FB
:104550000B8A038210BC7047C9B2002904D00288BC
:1045600052F04002028004E002884FF6BF731A4006
:104570000280704781817047808970470200002067
:1045800013890B4202D00123180001E00023180018
:10459000C0B2704738B50400DFF8B00C0460DFF833
:1045A000B01CDFF8B00CFDF7C9FDDFF8A41CDFF884
:1045B000A80CFDF7C3FDDFF8981CDFF8A00CFDF791
:1045C000BDFD01F011F800F099F8002001F01AF893
:1045D000DFF88C0CFEF7E4FF00200500EDB20F2D94
:1045E0001AD2DFF8800CEDB2032101FB0500007840
:1045F00001F02CF8DFF86C0CEDB2032101FB050093
:104600008178DFF8600CEDB2032202FB05004078F0
:1046100001F058F86D1CE1E7002001F017F80020C8
:10462000DFF8441C81F88C0031BDDFF83C0C90F8B9
:104630008C00704710B50400DFF82C0CC0F89040D7
:104640002000FEF7D5F80022DFF8343E01F092FD9D
:10465000FEF7C4F90400210CC9B2062001F032F8BB
:10466000210AC9B2072001F02DF82100C9B20820A3
:1046700001F028F810BDF8B504000D001600002761
:104680002000C0B200F0E2FF2800FFF7D3FF0520B2
:1046900000F0B8FF0120FFF78FF82000C0B200F053
:1046A00077FF070000F0B2FD36B23FB2BE4201DA3A
:1046B000002000E00120F2BD38B50025012000F007
:1046C000C5FFFF21112000F0FDFF052000F09AFF3B
:1046D00000200400E4B2202C0CDA0120FFF76CF873
:1046E0002C2000F0F9FF10F00100A0402843050045
:1046F000641CEFE700F08AFD280032BD70B5092088
:1047000000F0EAFF0400062000F0E6FF06000720A4
:1047100000F0E2FFF6B2C0B2000250EA06460820FE
:1047200000F0DAFF3043FEF763F80022DFF8503D77
:10473000FEF76CF8FEF752F905000021092000F0A1
:10474000C1FF3B2000F0C8FF50F04001C9B23B2040
:1047500000F0B8FF3B2000F0BFFF8006FAD4DFF87E
:10476000240EFFF767FF3B2000F0B6FF50F040013A
:10477000C9B23B2000F0A6FF3B2000F0ADFF800651
:10478000FAD42100C9B2092000F09CFF2800FFF7ED
:1047900051FF70BD010000221000C0B2152817D2D1
:1047A000DFF8E42DC0B252F8302091420ED3DFF88A
:1047B000D82DC0B212EBC0029268914206D2DFF847
:1047C000C82DC0B212EBC000007902E0401CE4E743
:1047D000FEE770472DE9F94F81B00E0093460D9F1B
:1047E0000F9CDDF84080119DDDF850A0DDF854905D
:1047F0009DF8040000F02AFF9DF80400002802D074
:10480000012876D068E1DFF8600AC0F89C60DFF824
:10481000580AC0F8A4B00C98DFF84C1AC1F8A000F0
:10482000DFF8440A80F8AA40DFF83C0A80F8AB8041
:10483000DFF8340A80F8AC50DFF82C0A80F8ADA01D
:10484000DFF8240A80F8AE90DFF81C0AA0F8A87000
:104850005846FDF7CDFF02000B000020DFF82C1DAD
:1048600001F088FCFEF7A4F883461FFA8BFB5FEA91
:104870001B21C9B2022000F025FF5946C9B203200E
:1048800000F020FF3000FFF785FF0100C9B21220C1
:1048900000F018FF0C98FFF77DFF0100C9B213204C
:1048A00000F010FF380080B2010AC9B2252000F0E4
:1048B00009FF3900C9B2262000F004FFE4B2002C41
:1048C00004D04146C9B2322000F0FCFE302000F096
:1048D00003FFE4B2002C01D0002100E0802110F0A1
:1048E0006F00084350EA0511C9B2302000F0EAFE1B
:1048F000F2E0032E00D3FEE7F61DDFF86C09C0F8E6
:10490000C860DFF86409C0F8CCB09DF80800DFF893
:10491000581981F8D100DFF8500980F8D440DFF849
:10492000480980F8D580DFF8400980F8D6509DF816
:104930004800DFF8341981F8D7009DF84C00DFF803
:10494000281981F8D800DFF8200980F8D9A0DFF80D
:10495000180980F8DA90BBF10D0F02D30C208346C2
:1049600004E0BBF1060F01D206208346072E05D1D5
:10497000BBF10B0F07D0BBF10C0F04D0082E08D1F0
:10498000BBF10C0F05D10120DFF8DC1881F8D00055
:1049900004E00020DFF8D01881F8D0001D2000F0DE
:1049A0009BFE9DF80800400050EA061054EA000102
:1049B000C9B21D2000F086FE1E2000F08DFEC0B2A0
:1049C00010F0080050EA0B10EDB2A9000843BDF842
:1049D0003810C1F3012189B20143C9B21E2000F091
:1049E00071FE262000F078FE10F0F700DFF878184E
:1049F00091F8D01050EAC101C9B2262000F062FE41
:104A0000BDF83810C9B21F2000F05CFE380080B23B
:104A1000010AC9B2202000F055FE3900C9B2212098
:104A200000F050FEE4B2002C04D04146C9B222206E
:104A300000F048FEDFF8300890F8D70000280FD0CB
:104A4000442000F049FE50F08001C9B2442000F03B
:104A500039FEDFF8140890F8D810242000F032FE58
:104A6000092E08D10221362000F02CFE64213A20C4
:104A700000F028FE0EE0092E08D10221362000F0B9
:104A800021FE7F213A2000F01DFE03E003213620A5
:104A900000F018FEBBF1060F0FD1312000F01CFE14
:104AA00010F0F80050F00501C9B2312000F00AFE04
:104AB0000C21372000F006FE0EE0312000F00CFE45
:104AC00010F0F80050F00301C9B2312000F0FAFDF7
:104AD0000A21372000F0F6FDBDE8F78F2DE9F14FF0
:104AE00082B00C00924698460C9DDDF83890DDF8B7
:104AF00040B0002600279DF8080000F0A7FD09201F
:104B000000F0EAFD06004D2000F0E6FD070016F07B
:104B10007F000090DFF85007D0F89000FEF7E4FD2A
:104B200000990843060056F07006F6B230062AD502
:104B300064B2122C02DB57F0070703E017F0F8000D
:104B400050F00407FFB217F0070007280DD164B238
:104B5000052C01DA0520040064B2152C01DB1420B9
:104B60000400601F60F303061CE064B2022C01DA4B
:104B70000220040064B2122C01DB11200400A01EEC
:104B800060F303060EE064B214F1010F02DA5FF085
:104B9000FF30040064B20F2C01DB0E200400601C07
:104BA00060F303063100C9B2092000F08BFD390023
:104BB000C9B24D2000F086FD9DF80800002802D003
:104BC000012879D047E1DFF8A00680F89440DFF8AB
:104BD0009806C0F898A0DFF89006C0F89C80DFF82F
:104BE0008806C0F8A450DFF88006A0F8A8909DF8C9
:104BF0003C00DFF8741681F8AA00DFF86C0680F834
:104C0000ACB09DF84C00DFF8601681F8AD00149848
:104C1000DFF85416C1F8B0005046FDF7E9FD002258
:104C2000DFF85C3801F0A6FAFDF7C2FE82461FFAF3
:104C30008AFA5FEA1A21C9B2042000F043FD514606
:104C4000C9B2052000F03EFD2800FDF7D1FD0200AD
:104C50000B000020DFF8341901F08CFAFDF7A8FEF4
:104C60000500ADB2290AC9B2022000F02BFD2900CF
:104C7000C9B2032000F026FD484680B2010AC9B23D
:104C8000252000F01FFD4946C9B2262000F01AFD7C
:104C9000302000F021FD9DF83C10002901D00021BA
:104CA00000E0802110F06F00084350EA0B11C9B2F8
:104CB000302000F007FDCEE0DFF8AC0580F8C440FE
:104CC000B8F1030F00D3FEE718F10708DFF89805E5
:104CD000C0F8C880DFF89005C0F8CC509DF83400CB
:104CE000DFF8841581F8D100DFF87C05A0F8D290B8
:104CF0009DF83C00DFF8701581F8D4009DF8440061
:104D0000DFF8641581F8D7009DF84800DFF85815E2
:104D100081F8D800DFF8500580F8D6B09DF84C0037
:104D2000DFF8441581F8D9001498DFF83C15C1F874
:104D3000DC000D2D02D30C20050003E0062D01D26E
:104D400006200500B8F1070F03D10B2D06D00C2D5E
:104D500004D0B8F1080F07D10C2D05D10120DFF8E0
:104D6000081581F8D00004E00020DFF8FC1481F879
:104D7000D000DFF8F40490F8D70000280FD04420CA
:104D800000F0AAFC50F08001C9B2442000F09AFC67
:104D9000DFF8D40490F8D810242000F093FC1D20F4
:104DA00000F09AFC9DF83400400050EA08109DF88D
:104DB0003C100143C9B21D2000F084FC1E2000F00D
:104DC0008BFCC0B210F00B0050EA05105FFA8BFBB1
:104DD0005FEA8B010143C9B21E2000F073FC26205C
:104DE00000F07AFC10F0F700DFF87C1491F8D01096
:104DF00050EAC101C9B2262000F064FC484680B2E6
:104E0000010AC9B2202000F05DFC4946C9B2212048
:104E100000F058FC062D0FD1312000F05DFC10F0A1
:104E2000F80050F00501C9B2312000F04BFC0C2114
:104E3000372000F047FC0EE0312000F04DFC10F070
:104E4000F80050F00301C9B2312000F03BFC0A2108
:104E5000372000F037FCBDE8F78F2DE9F34F8BB01A
:104E6000002002909DF82C00002802D001286AD072
:104E700025E1272000F030FC8246DFF8EC0390F8B3
:104E8000AA00002804D05FF000085FF0000903E0EA
:104E90005FF00008DFF88099302000F01DFC06214B
:104EA000084203D00026DFF8707901E000260027D1
:104EB000DFF8B40390F8AC00002803D000245FF0C2
:104EC000804501E000240025DFF89C03B0F8A8002D
:104ED0005FFA8AFA3AF0F8010818401CFDF77EFCE8
:104EE00042464B46FDF716FE32003B00FDF712FE30
:104EF00006000F009DF83000FDF77AFC32003B0001
:104F0000FDF708FE22002B00FDF704FE0022DFF86B
:104F10000C39FDF77BFC04000D00D348D0F8A40049
:104F2000FDF766FC02000B002000290001F022F9C9
:104F30000022DFF8EC38FDF769FC01F047FAFDF7D5
:104F40004DFD0290BBE000260027C748D0F8C800FE
:104F5000072804D014D309280DD006D310E0002070
:104F6000DFF8E01C06000F000AE00020DFF8D81C84
:104F700006000F0004E00020DFF8D01C06000F0040
:104F80000120B949D1F8CC108840FDF727FC020078
:104F90000B003000390001F0EDF8CDE908010020E8
:104FA000DFF87418DDE9082301F0E4F8804689464B
:104FB000AD48B0F8D200FDF71BFC0022DFF8903CB2
:104FC000FDF7A8FD42464B46FDF720FCCDE9060162
:104FD000A54890F8D400002801D0142400E0002453
:104FE000A14890F8D000002802D05FF0080A01E044
:104FF0005FF0000A9C4890F8D100001DFDF7EEFB21
:10500000CDE900019DF83000C0009749D1F8CC10DF
:10501000B0EB8100944991F8D61010EB01101C30D0
:10502000001BFDF7E5FB04000D008F48D0F8CC0015
:10503000DAEB8000FDF7DCFB02000B00200029000A
:1050400001F098F8FFF74EF9DDE90023FDF7DEFBEC
:1050500004000D00200029000022002301F0D8F9EF
:1050600002D222002B0001E0002200230020DFF802
:10507000AC17FDF74FFDCDE90401DDE9040142461F
:105080004B46FDF7C3FBCDE90001DDE90623DDE971
:105090000001FDF73FFD82468B460020DFF88017B8
:1050A00052465B46FDF7B2FBDFF8A82BDFF8943DD4
:1050B000FDF730FD01F0C4F9FDF790FC0290029875
:1050C0000DB0BDE8F08F32B504000025DFF8780D93
:1050D00090F88D00002802D0012849D092E00020ED
:1050E000DFF8641DA1F8C0009DF80000DFF8581D2E
:1050F000A1F8BE00DFF8500D90F8AA00002804D1F6
:105100000121684600F007FB04E09DF80010322002
:1051100000F0D8FA9DF8000000280AD09DF80000A1
:10512000412806DA9DF80000DFF81C1D81F8C30055
:1051300004E02020DFF8101D81F8C300DFF8080D1F
:1051400090F8C310200000F0E6FADFF8FC0CB0F88D
:10515000C000DFF8F41C91F8C3100818DFF8E81C51
:10516000A1F8C000DFF8E00CD0F8B000050049E07D
:10517000DFF8D40C90F8D90000280CD0332000F0D0
:10518000ABFA10F0BE01332000F09CFA19213B204D
:1051900000F098FA0EE0332000F09EFA10F0BF0005
:1051A00050F00101C9B2332000F08CFA1D213B20E0
:1051B00000F088FA9DF80000DFF88C1C81F8E4000C
:1051C0009DF80010222000F07DFA00210E2000F052
:1051D00079FA00210D2000F075FA012000F07CFA28
:1051E0000721084204D100F021F80120FEF7E4FA7B
:1051F0009DF80010200000F08EFADFF84C0CD0F87B
:10520000DC000500280000F03DF931BD80B51248F2
:10521000FDF78BF80F48FDF788F8002000F0F2F951
:105220000020DFF8241C81F88C0001BD80B50A48FD
:10523000FDF77BF80748FDF778F8012000F0E2F968
:105240000020DFF8041C81F88C0001BDC817002085
:105250003F570008C0160020D4160020E816002092
:1052600050010020E8700008841400202DE9F0416E
:1052700006000027DFF8D00B90F88D00002802D040
:10528000012837D085E0DFF8C00B90F8AE000700AA
:10529000402000F021FA10F03F0050F00C01C9B29C
:1052A000402000F00FFA412000F016FA50F0C10142
:1052B000C9B2412000F006FA352000F00DFA10F0D6
:1052C0003F00DFF8841B81F8C2000020DFF8781B64
:1052D00081F8B4000020DFF8701B81F8B5000020D1
:1052E000DFF8641BA1F8C0000020DFF85C1BA1F808
:1052F000BE004EE0DFF8500B90F8D90000280DD02A
:10530000332000F0E9F950F04101C9B2332000F038
:10531000D9F919213B2000F0D5F90EE0332000F037
:10532000DBF910F0BF0050F00101C9B2332000F0EA
:10533000C9F91D213B2000F0C5F9DFF80C0B90F8EE
:10534000DA000700DFF8000B90F8D70000280CD037
:105350001D21112000F0B6F9402000F0BDF910F039
:105360003301402000F0AEF90BE01F21112000F0C6
:10537000A9F9402000F0B0F910F03F01402000F002
:10538000A1F900210F2000F09DF900210D2000F06F
:1053900099F94FF480740025DFF8688C2A00210009
:1053A0004046FDF7A9F80120DFF89C1A81F88C002F
:1053B000002E08D03100DFF8500CFDF745F8DFF87B
:1053C000480CFCF7C5FEDFF8800A90F88D00002835
:1053D00049D1052000F016F9FFB2002F4DD127204A
:1053E00000F07AF98046DFF8600AB0F8A800FDF70F
:1053F000FFF904000D005FFA88F838F0F800FDF7B7
:10540000EDF90022DFF81034FDF784FB22002B00B9
:10541000FDF780FB0022DFF8903CFDF77BFB0022CC
:10542000DFF8F833FDF7F2F904000D00DFF8180A91
:10543000D0F8A400FDF7DCF902000B0020002900E1
:1054400000F098FE0022DFF8D833FDF7DFF9FDF712
:10545000C5FA0100DFF8F40CFCF7F6FFDFF8EC0CFE
:10546000FCF776FE09E0FFB2002F03D0052000F024
:10547000C9F802E0062000F0C5F8BDE8F0810000A0
:1054800080844E4010B504002100DFF8C40CFCF706
:10549000DBFFDFF8B40990F88D00002802D0012866
:1054A0001AD03EE0402000F017F910F03301402000
:1054B00000F008F9412000F00FF910F03E01412002
:1054C00000F000F9352000F007F910F03F00DFF898
:1054D000781981F8C20024E0DFF86C0990F8D70051
:1054E00000280FD0F521112000F0ECF8402000F04A
:1054F000F3F810F0330050F04001C9B2402000F042
:10550000E1F80EE0F721112000F0DCF8402000F077
:10551000E3F810F03F0050F04001C9B2402000F025
:10552000D1F80220DFF8201981F88C00DFF8200C78
:10553000FCF70EFE032000F065F8122000F0CCF816
:1055400010BD80B5DFF80C0C90F88D00002802D05B
:10555000012801D015E014E0FA21112000F0B2F882
:10556000402000F0B9F810F03F01402000F0AAF808
:105570000320DFF8E01B81F88C00072000F042F8E0
:10558000FFE701BD00A1BC33BC6E000880847E41F2
:1055900038B504000025E4B2002C02D0012C09D05B
:1055A0001CE0112000F098F8C0B24008C0B24042A0
:1055B000050016E0DFF89008D0F89000DFF8981B9F
:1055C000884205D31B2000F087F89D38050004E0D1
:1055D0001B2000F081F8A438050002E05FF0FF30E6
:1055E0000500280000B232BD80B5002000F01BFD90
:1055F0000120FEF7E1F8012000F015FD0620FEF77E
:10560000DBF801BD10B50400DFF8500B0078E4B200
:1056100084421AD0DFF8440B0470E4B2002C09D0A5
:10562000E4B2032C03D10120FEF766F802E000206B
:10563000FEF762F8012000F04FF810F0F80054EA8D
:105640000001C9B2012000F03DF810BD10B5040002
:10565000DFF8000B90F88D00E4B2A04231D0DFF803
:10566000F40A80F88D40DFF8EC0A90F88D000128EC
:1056700013D00020FFF7C6FF012000F02DF810F036
:105680007F01012000F01EF80021402000F01AF8F0
:105690003021412000F016F813E00020FFF7B2FFA0
:1056A000012000F019F850F08001C9B2012000F08B
:1056B00009F80021402000F005F80021412000F009
:1056C00001F810BD38B504000D002900C9B2200052
:1056D000C0B200F0D3FC31BD10B504002000C0B250
:1056E00000F0E4FC10BD70B504000D00160032009F
:1056F000D2B229002000C0B200F0EDFC70BD70B540
:1057000004000D0016003200D2B229002000C0B201
:1057100000F0FEFC70BD38B504000D002A00D2B2C6
:1057200021000020FFF7DFFF31BD38B504000D0078
:105730002A00D2B221000020FFF7E1FF31BD80B581
:10574000DFF8040790F88C00012802D002284CD022
:1057500061E0DFF8F40690F88D00002834D10020D5
:10576000DFF8E41681F8B4000020DFF8DC1681F8D9
:10577000B5000020DFF8D016A1F8C0000020DFF847
:10578000C816A1F8BE000B213E20FFF79BFF102199
:105790003F20FFF797FFDFF8B00690F8AE00002833
:1057A00009D00D20FFF798FF50F04001C9B20D203D
:1057B000FFF788FF08E00020DFF88C1681F88C00E6
:1057C000DFF88809FCF7B1FDDFF8940900680028CC
:1057D0000AD0DFF88C090068C068002804D0DFF820
:1057E00080090068C068804715E00020DFF858167F
:1057F00081F88C00DFF86809006800280AD0DFF81B
:10580000600900684068002804D0DFF85409006887
:1058100040688047FFE701BD0000F03F00002040E6
:1058200080842E4170B582B000208DF80000DFF832
:10583000180690F88C00012803D0022800F0DF81C0
:10584000FFE1DFF8040690F88D00002803D001285E
:1058500000F01281D2E1DFF8F00590F8AC000028EA
:1058600052D03F20FFF738FF8DF800009DF8000070
:10587000800749D40B213E20FFF724FF10213F2051
:10588000FFF720FFDFF8C00590F8AE00002809D12F
:105890000020DFF8B41581F88C00DFF8B008FCF7C1
:1058A00057FC08E00D20FFF717FF50F04001C9B288
:1058B0000D20FFF707FFDFF85007FCF736FDDFF894
:1058C000A008006800280AD0DFF894080068006982
:1058D000002804D0DFF888080068006980470020AD
:1058E000DFF8641581F8B4000020DFF85C1581F85A
:1058F000B5000020DFF85015A1F8C0000020DFF847
:105900004815A1F8BE0079E1DFF83C05B0F8BE000B
:1059100000283ED1DFF83005B0F8C000002838D1AB
:10592000DFF8240590F8AA00002805D10121DFF84E
:105930003408FFF7FAFE06E03220FFF7CDFEDFF86D
:105940000815A1F8BE00DFF80005B0F8BE00DFF8CA
:10595000F814B1F8C010411AC9B2DFF8A806DFF890
:10596000E824B2F8C0201018FFF7DFFEDFF8D804F3
:10597000B0F8C000DFF8D014B1F8BE100818DFF896
:10598000C814B1F8C010401ADFF8BC14A1F8C00068
:1059900024E0DFF8B404B0F8BE00DFF8AC14B1F8CE
:1059A000C010411AC9B2DFF85C06DFF89C24B2F8D7
:1059B000C0201018FFF7B9FEDFF88C04B0F8C00063
:1059C000DFF88414B1F8BE100818DFF87C14B1F8C1
:1059D000C010401ADFF87014A1F8C000DFF86804A6
:1059E00090F8AE00002809D10020DFF85C1481F89F
:1059F0008C00DFF85807FCF7ABFB08E00D20FFF741
:105A00006BFE50F04001C9B20D20FFF75BFEDFF8DE
:105A1000F805FCF78AFCDFF848070068002816D074
:105A2000DFF83C0700688068002810D00023DFF80A
:105A3000180490F9B62012B2DFF80C04B0F8BE10CA
:105A4000DFF8C005DFF818472468A468A0470020E5
:105A5000DFF8F41381F8B4000020DFF8EC1381F8CC
:105A6000B5000020DFF8E013A1F8C0000020DFF847
:105A7000D813A1F8BE00C1E0002440211220FFF796
:105A800021FE1220FFF728FE8DF800009DF800008F
:105A9000800623D520211220FFF714FEDFF8A8038B
:105AA00090F8DA00002804D10020DFF89C1381F878
:105AB0008C00DFF85405FCF738FCDFF8A40600681A
:105AC00000280AD0DFF8980600680069002804D092
:105AD000DFF88C060068006980478FE01920FFF727
